:100000000C9412080C9456080C9456080C9456083C
:100010000C9456080C9456080C9456080C945608E8
:100020000C9456080C9456080C943E2D0C94102EEB
:100030000C94B6230C9456080C9456080C9456084D
:100040000C9456080C9456080C9456080C945608B8
:100050000C94200C0C941D240C9456080C945608F7
:100060000C9456080C9456080C9456080C94560898
:100070000C9456080C9456080C9456080C94560888
:100080000C9456080C9456080C9456080C94560878
:100090000C9456080C9456080C9456080C94560868
:1000A0000C9456080C9456080C9456086D08770862
:1000B00081088B0894089E08A908D809DE09E2097E
:1000C000E509E909ED09F109F509FA09FE09020A4C
:1000D000060A090A0D0A110A150A190A1E0A7919CF
:1000E0007919B319B319F219141AAA1BAA1B5A1AAF
:1000F000AA1B011B011B781B7F1BAA1BA51B0E1B28
:100100000E1B0E1B0E1B0E1B0E1B0E1B0E1B0E1BA7
:100110000E1B0E1B0E1B0E1B0E1B0E1B0E1B201B85
:10012000301B371B3E1B481B3E1C3E1C511C511CE8
:10013000471C511C511C511C3E1C3E1C4D1C511C8B
:10014000511C4D1C752E9C2E8A2F9C2E8A2FE42E1E
:10015000072F8A2F5D2F6C2F07634236B79BD8A7D6
:100160001A39685618AEBAAB558C1D3CB7CC5763DC
:10017000BD6DEDFD753EF6177231BF000000803F8A
:1001800005A84CCDB2D44EB93836A9020C50B9915D
:100190008688083CA6AAAA2ABE000000803F00F07C
:1001A00001F002F003F004F005F006F029003A0037
:1001B0003B003C003D003E003F004000410042004B
:1001C0004300440045004600470029001E001F0070
:1001D0002000210022002300240025002600270003
:1001E0002D002E002A002A002B0014001A000800FF
:1001F000150017001C0018000C00120013002F003F
:10020000300031004C0001510400160007000900C5
:100210000A000B000D000E000F0033003400280010
:1002200048004B00E100E1001D001B000600190022
:10023000050011001000360037003800E5003500D9
:100240005200E000E300E2002C00E600E70001516C
:10025000E400500051004F0049004A004D004E009C
:100260000100010001000100010001000100010086
:100270000100010001000100010001000100010076
:100280003A003B003C003D003E003F004000410082
:1002900042004300440045004C004C0001000100B6
:1002A00001000100010001004A004B0052004E0015
:1002B0004D0001000100005C01000100010001008F
:1002C0000100010001000100500051004F00010039
:1002D0000100010001000100010001000100010016
:1002E0000100010001000100010001000100010006
:1002F00001000100A900010001000100010001004E
:100300000100010001000100AA000100010001003C
:1003100001000100010001000100010001000100D5
:1003200001000100010001000100010001000100C5
:1003300001000100010001000100010001000100B5
:1003400001000100010001000100010001000100A5
:100CE00001000100010001000100010000000000FE
:100CF0000000000000000001010203040506080ACC
:100D00000C0F1114181C2024292E33393F464C5344
:100D10005B626A7179818A929AA2AAB2B9C1C8CF7C
:100D2000D5DCE1E7EBF0F4F7FAFCFDFEFFFEFDFC9D
:100D3000FAF7F4F0EBE7E1DCD5CFC8C1B9B2AAA26B
:100D40009A928A8179716A625B534C463F39332E9D
:100D50002924201C1814110F0C0A0806050403028C
:100D60000101000000000000000000006801F00028
:100D7000B40078005A007F3F1F6432146432147844
:100D80003C1E1E140A0500000000000101010101C3
:100D90000101010102020202020202020203030334
:100DA0000303030303040404040404050505050503
:100DB00006060606060707070708080808090909BE
:100DC0000A0A0A0A0B0B0B0C0C0C0D0D0D0E0E0F64
:100DD0000F0F1010111111121213131414151516F0
:100DE000161717181819191A1A1B1C1C1D1D1E1F5F
:100DF0001F20202122222324252526272728292AAF
:100E00002B2B2C2D2E2F2F303132333435363637D5
:100E100038393A3B3C3D3E3F4041424344464748D7
:100E2000494A4B4C4D4F50515253555657585A5BA7
:100E30005C5E5F606263646667696A6C6D6E707148
:100E400073747678797B7C7E8081838486888A8BB4
:100E50008D8F91929496989A9B9D9FA1A3A5A7A9E7
:100E6000ABADAFB1B3B5B7B9BBBDBFC1C4C6C8CADE
:100E7000CCCFD1D3D6D8DADCDFE1E4E6E8EBEDF095
:100E8000F2F5F7FAFCFF0403300000000C036B00DE
:100E900062006400380078000000080364006F00FE
:100EA000750000000403090409026D00040100A09C
:100EB000FA090400000103010100092111010001E8
:100EC0002240000705810308000A0904010001030C
:100ED000010200092111010001224D0007058203D2
:100EE00008000A09040200010300000009211101A1
:100EF00000012236000705830308000A09040300E5
:100F00000103000000092111010001223900070539
:100F100084032000011201100100000008EDFE60B2
:100F20006001000102030105010906A1010507197D
:100F3000E029E715002501950875018102050819CA
:100F4000012905950575019102950175039101052A
:100F500007190029F71500250195F875018102C0D0
:100F600005010980A10185021601002603001A81EE
:100F7000002A8300751095018100C0050C0901A1AC
:100F8000018503160100269C021A01002A9C0275A5
:100F90001095018100C005010902A1010901A1000C
:100FA000050919012905150025019505750181021D
:100FB0009501750381010501093009311581257FEE
:100FC00095027508810609381581257F95017508F8
:100FD0008106050C0A38021581257F950175088167
:100FE00006C0C005010906A101050719E029E7159A
:100FF000002501950875018102950175088101059B
:10100000081901290595057501910295017503914E
:10101000010507190029FF150026FF009506750830
:101020008100C00011241FBECFEFDAE0DEBFCDBFCC
:1010300004B603FE24C08091C7029091C802A0911B
:10104000C902B091CA028730904BA740B04BB9F4A7
:101050001092C7021092C8021092C9021092CA02DE
:1010600014BE84B7877F84BF88E10FB6F89480935D
:101070006000109260000FBEE0E0F8E3099511E017
:10108000A0E0B1E0E4E2F7E602C005900D92A034E2
:10109000B107D9F722E0A0E4B1E001C01D92A73C5E
:1010A000B207E1F70E94682A0C9490330C94000078
:1010B00080E090E008950895089581E00895462F16
:1010C00050E04730510508F050C0FA01EA5AFF4F8E
:1010D000DC0112968C910C942833882309F445C0C6
:1010E0000E948D1381E00E94FD1240E03AC08823E7
:1010F000E1F10E948D1381E00E94FD1240E061E663
:1011000031C0882391F10E948D1381E00E94FD126D
:1011100040E06FEF27C0882341F10E948D1381E0EA
:101120000E94FD1240E008C08823F9F00E948D1350
:1011300081E00E94FD124FEF6FEF09C08823A9F0F4
:101140000E948D1381E00E94FD124FEF60E080E06D
:101150000AC0882351F00E948D1381E00E94FD1285
:1011600040EF60E08FEF0C945111089580FF02C0B2
:10117000219A01C02198299881FF02C0239A01C0B9
:1011800023982B9882FF02C0229A01C022982A98A5
:101190000895CF92DF92EF92FF928C3724E192076D
:1011A00030F469E070E00E94DE32CB0127C0A0E09D
:1011B000B0E08A50974DAF4FBF4F6627782F892FE9
:1011C0009A2F25EF38E241E050E00E940633690192
:1011D0007A01CA01B9010E94CE329B01AC01C7015C
:1011E000B6010E94CE32BB27A92F982F872F0097D8
:1011F00021E0A207B10511F48FEF9FEFFF90EF9070
:10120000DF90CF90089581E008950C945D080E94CE
:101210002C1C2FEF84E39CE0215080409040E1F7AC
:1012200000C000000C9443240C948B0F843030F4E5
:10123000811105C0909180009F7D04C083E0909152
:101240008000906290938000282F30E0AFEFBFEFD6
:101250000E942E3323E030E040E050E00E9406334D
:10126000C9010E94C90890938B0080938A00089559
:1012700080916F0081700895109241011092400199
:1012800010924201EFE6F0E0808181608083089552
:10129000EFE6F0E080818E7F80830E9497280C9497
:1012A00016090E94380981110C9448090C943C09D4
:1012B000FF920F931F93CF93DF938C01FC01C081AA
:1012C000D18180919D01811113C08281882349F0D1
:1012D000CE010E948221F82E682FCE010E94282183
:1012E00004C0CE010E945621F82EBE018F2D04C0ED
:1012F000CE010E948221BE010E94A70CEC01B80120
:101300000E940509882309F494C2B801CE010E9405
:101310003D0F882309F48DC2C73CFCE5DF0741F48B
:10132000F8018281882309F484C20E94C81281C214
:10133000C83C8CE5D80708F03AC1C03C9CE5D90709
:1013400041F4F8018281882309F473C20E94C11319
:1013500070C2C13CECE5DE0708F0DEC0C531FCE53B
:10136000DF0708F0A4C0C2308CE5D80708F478C0C5
:10137000F8018281882309F47FC00E94B322811181
:1013800002C00E948D220E94D02290E09093B80269
:101390008093B702FE01E350FC45E231F10520F4F1
:1013A000E35AFF4F0C9428338091B702816003C049
:1013B0008091B70282608093B7024BC08091B702E0
:1013C0008460F9CF8091B70213C08091B702806129
:1013D000F2CF8091B7028062EECF8091B702806435
:1013E000EACF8091B7028068E6CF8091B70284602F
:1013F0008860E1CF8091B7028E7FDDCF8091B70208
:101400008D7FD9CF8091B7028B7FD5CF8091B702E6
:1014100013C08091B7028F7ECECF8091B7028F7DAF
:10142000CACF8091B7028F7BC6CF8091B7028F77EA
:10143000C2CF8091B7028B7F877FBDCF9091B702DB
:1014400097FB882780F921E0822780FB97F990930A
:10145000B7028091B7020E94D4220E942C1CE9C1DD
:10146000C1159CE5D90781F0C130DC45A9F081E0C8
:101470008093480180934901C801DF91CF911F916A
:101480000F91FF900C940309F8018281882309F4DD
:10149000D0C10E940709CDC1F8018281882309F4D7
:1014A000C8C180913F02816080933F02C2C1C531B3
:1014B000FCE5DF0729F50E945422382FF80122812C
:1014C0008091030190910401222371F03A7A21E086
:1014D00009F420E020934301222311F065E301C0C9
:1014E00069E20E94492309C020914301222311F09F
:1014F00065E301C069E20E9454230E94212299C140
:10150000CF3BDC4509F0B3CFF8018281882309F491
:1015100090C10E9451098DC1C33C9CE5D90741F49B
:10152000F8018281882309F484C10E945B1281C181
:10153000C43CECE5DE0700F5C13CFCE5DF0761F4E7
:10154000F8018281882309F474C10E9454228272B6
:1015500081F00E9484136DC1C23CDC4509F087CF45
:10156000F8018281882309F464C10E9454228272A6
:1015700081F30E947A135DC1F8018281C53CFCE5CC
:10158000DF0731F4882309F454C10E94931251C13A
:10159000C63CDC4530F4882309F44BC10E94741228
:1015A00048C1882309F445C10E94AE1242C1CE3C15
:1015B000ECE5DE07B9F4F8018281882309F439C12A
:1015C0000E942B11653171058105910538F00E944B
:1015D0002B11673171058105910558F285E10E9453
:1015E000FD1227C1CF3CFCE5DF0708F07AC0CA3CFA
:1015F0008CE5D807B1F4F8018281882309F419C178
:101600000E942B11623071058105910540F00E9406
:101610002B11653071058105910508F4AACF82E090
:10162000DECFCB3C9CE5D907B8F4C83CECE5DE073F
:1016300041F4F8018281882309F4FBC00E94E3127F
:10164000F8C0C93CDC4509F012CFF801828188233B
:1016500009F4EFC081E0C3CFF8018281CC3CFCE506
:10166000DF07A1F4882309F4E4C00E942B1169303C
:1016700071058105910540F00E942B116E307105B6
:101680008105910508F475CF89E0A9CFCD3CDC45F3
:10169000A0F4882309F4CDC00E942B116630710597
:1016A0008105910540F00E942B116830710581057C
:1016B000910508F45ECF86E092CF882309F4B9C083
:1016C0000E942B116F3071058105910540F00E9439
:1016D0002B11643171058105910508F44ACF8FE023
:1016E0007ECFC23DECE5DE0739F5F8018281882323
:1016F00061F0109249010E94E82390934701809382
:10170000460180E20E94291994C08091490181110B
:101710000FC080914601909147010E94F423883CBC
:10172000910530F487E20E94D01787E20E94C81822
:1017300080E20E9430197DC0C33DFCE5DF0708F060
:1017400043C0F8018281C03DFCE5DF07A1F4882396
:1017500009F46FC00E942B11693171058105910553
:1017600040F00E942B11623271058105910508F449
:1017700000CF89E134CFC13DDC4528F4882309F44A
:1017800058C088E12CCF882351F0109248010E9464
:10179000E823909345018093440182E0B3CF809188
:1017A000480181110FC080914401909145010E9430
:1017B000F423883C910530F486E20E94D01786E23B
:1017C0000E94C81882E0B5CFC63DECE5DE0731F4D3
:1017D000F8018281882369F180E009C0C73DFCE5FA
:1017E000DF0741F4F8018281882319F182E00E9429
:1017F000042B1FC0C33DDC4509F039CEF8018281BE
:10180000811177CF80914901811192CF809146015A
:10181000909147010E94F423883C910508F088CFFD
:1018200080E20E94301988E20E94D01788E20E946C
:10183000C81880E0DF91CF911F910F91FF9008951C
:101840001F920F920FB60F9211242F933F934F9335
:101850005F936F937F938F939F93AF93BF93CF9338
:10186000EF93FF93209100018091400190914101FD
:10187000019644EF249F90011124B9010E94DE32A9
:101880009093410180934001B901660F672F661F55
:10189000770B71950E94DE326F7780914201823022
:1018A00019F4603451F404C0813039F46F3729F4ED
:1018B00080916F008E7F80936F00E62FF0E0E451FF
:1018C000F34FC4910E949728F82F41E051E0C49F44
:1018D000C001C59F900D112463E070E00E94DE32CC
:1018E000F69FC001F79F900D11240E94C9089093A4
:1018F0008B0080938A00FF91EF91CF91BF91AF91C0
:101900009F918F917F916F915F914F913F912F9117
:101910000F900FBE0F901F901895269A2E9882E276
:101920008093800089E1809381008FEF9FEF9093F7
:101930008700809386000E94E8270C943C090E944F
:101940008D0C0C94890F0C94B6080C94A30C9FE09A
:10195000799FF00111249AE5899FE00DF11D112472
:10196000E60FF11DEE0FFF1FE455FE4F8591949198
:101970000895880F991F82569E4FFC01859194917E
:101980000895CF93DF930E94A70C0E949D0EEC0157
:10199000811521E5920708F043C0811530E59307D2
:1019A00008F021C1883E910508F5803E910508F0B8
:1019B000C0C1883A910578F4853A910508F09EC037
:1019C0008130910509F4B5C108F46CC184309105EA
:1019D00008F0AFC167C18D3B910508F49AC0803C07
:1019E000910508F45FC1805C9109ECC0C11580E3EA
:1019F000D80780F4C11520E2D20708F0E1C0C03F4B
:101A0000D10508F44FC1CF3FD10511F008F091C1C5
:101A1000D0658FC1C11530E4D30708F0E1C0D6C04E
:101A2000C11589E5D80740F5C11528E5D20708F0AA
:101A300025C1C11534E5D30778F4C11583E5D8076E
:101A400008F002C1C11522E5D20708F0E8C0DC2F7A
:101A5000CC27C16FD06A6DC1C11535E5D30708F435
:101A600008C1C11586E5D80708F01CC1CF71DD2774
:101A7000DC2FCC27D0625DC1CB3B2CE5D20709F42B
:101A800008C1D8F4C93B8CE5D80709F4FCC008F0BC
:101A9000FDC0C1153AE5D30708F004C18C2F8F7043
:101AA000806E90E0906A34E0D695C7953A95E1F75C
:101AB000CF709C013C2BE9013CC1CE3B8CE5D807A3
:101AC00009F4EDC060F4CC3B3CE5D30709F4E4C075
:101AD000CD3BDC4509F0E6C0C0E0D2ED2AC1CE0125
:101AE00090568115904208F0DDC08D2F8F710E94B5
:101AF000190FDD27D0628F71D82B1BC1853A910554
:101B000009F4D3C0863A910509F4D2C0C3E8D0E401
:101B100010C1883A910509F4CEC0893A910509F4BB
:101B2000CDC08A3A910509F4CCC08B3A910509F4ED
:101B3000CBC08C3A910509F4CAC08B3B910509F4DE
:101B4000C9C08C3B910509F4C8C08D3A910509F4D0
:101B5000C7C0803B910509F4C6C08E3A910509F4CF
:101B6000C5C08F3A910509F4C4C0813B910509F4C1
:101B7000C3C0823B910509F4C2C0833B910509F4BF
:101B8000C1C0843B910509F4C0C0853B910509F4AF
:101B9000BFC0863B910509F4BEC0873B910509F49F
:101BA000BDC0883B910509F4BCC0893B910509F48F
:101BB000BBC08A3B910509F0BAC0CAE2D6E4B9C0FD
:101BC000CE019F700E94B90CEC01B3C0CE019927E1
:101BD000D3FF03C0EC01D86CACC0EC01D06CA9C041
:101BE000DF70D06AA6C0282F237081E090E002C089
:101BF000880F991F2A95E2F79C689E01E4E03695CC
:101C00002795EA95E1F72370922BCF70C695C6957C
:101C100030E2C39FE0011124C82BD92B8AC08C2F3E
:101C20008695869520E2829FC00111249E01237033
:101C30003327C1E0D0E002C0CC0FDD1F2A95E2F7C8
:101C4000C82BD92BDC6875C08C2F8695869530E221
:101C5000839FC00111249E0123703327C1E0D0E08F
:101C600002C0CC0FDD1F2A95E2F7C82BD92BDA680A
:101C700060C0DC2FCC27C46FD06A5BC0DC2FCC27C0
:101C8000C06FD06A56C0C0E0D4ED53C0C0E0D5EDFF
:101C900050C0C0E0D1ED4DC0C0E0D0ED4AC0C0E0C2
:101CA000D3ED47C0C0E0D0E044C0C1E8D0E441C0BB
:101CB000C2E8D0E43EC0C2EED4E43BC0C9EED4E4F6
:101CC00038C0CAEED4E435C0C5EBD4E432C0C6EBAC
:101CD000D4E42FC0C3EBD4E42CC0C4EBD4E429C0BB
:101CE000C7EBD4E426C0CCECD4E423C0CDECD4E4E0
:101CF00020C0C3E8D5E41DC0CAE8D5E41AC0C2E9D3
:101D0000D5E417C0C4E9D5E414C0C1E2D6E411C0DB
:101D1000C3E2D6E40EC0C4E2D6E40BC0C5E2D6E40A
:101D200008C0C6E2D6E405C0C7E2D6E402C0C0E0FF
:101D3000D4E4CE01DF91CF9108958238910549F125
:101D4000B0F48133910509F459C048F48932910502
:101D500009F44FC08A32910509F455C008958533BE
:101D6000910509F441C08933910599F00895833EA6
:101D7000910531F138F4803E910591F0823E910554
:101D8000A9F00895863E910501F1873E910539F14C
:101D900008952091B70220FD3BC021FD39C0089570
:101DA0008091B70280FF34C089E341C08091B702BF
:101DB00082FF32C08091B70284FF2CC080E037C020
:101DC0008091B70282FD28C0F5CF8091B70283FFD2
:101DD00025C08091B70284FDF1CF87EE28C08091A5
:101DE000B70283FD1BC0F5CF8091B70285FF18C0F5
:101DF00019C08091B70285FF15C012C08091B7024B
:101E000086FF12C013C08091B70286FF0FC00CC0BE
:101E100080EE0DC083EE0BC082EE09C086EE07C0D7
:101E200085E305C089E203C081E301C08AE290E056
:101E300008959091B70292FF0DC0282F2871283085
:101E400019F4877F846006C0282F2471243011F490
:101E50008B7F886093FF0DC0282F2871283119F4DB
:101E6000877E846106C0282F2471243111F48B7E73
:101E7000886194FD877E08950895CF93DF93EC01E8
:101E8000FB018281811102C081E040C08091570135
:101E9000811125C0C631DC45B9F70E943C0F81E0B5
:101EA000809357010E94E823909356018093550137
:101EB00010924A0110924C0110924B0110924E0167
:101EC00010924D011092500110924F011092520148
:101ED00010925101109254011092530116C080913A
:101EE0005501909156010E94F423883C910560F6BB
:101EF00080914A01E82FF0E0EE0FFF1FE55BFE4FF7
:101F0000D183C0838F5F80934A0180E0DF91CF91BE
:101F100008950C945B080C945C0885B7806885BFB5
:101F200085B7806885BFA5E2B1E021E030E08D9102
:101F3000E82FE295EF70F0E041A18F70B90102C087
:101F4000660F771F8A95E2F7CB01962F909549236C
:101F500041A392A1982B92A371E0AB32B70739F756
:101F6000A6E1B1E021E030E08D91E82FE295EF703D
:101F7000F0E041A18F70B90102C0660F771F8A950A
:101F8000E2F7CB01962F9095492341A392A1982B7C
:101F900092A371E0A532B70739F7E4E6F1E0A8E5CE
:101FA000B1E0119211921D921D9281E0E037F80785
:101FB000C1F70C949F0C4F925F927F928F929F92E9
:101FC000AF92BF92CF92DF92EF92FF920F931F9347
:101FD000CF93DF9305E211E0C8E5D1E0EE24E3946E
:101FE000F12C99249394BE01A880B980198218829B
:101FF000D8012D918D01E22FE295EF70F0E081A1E3
:102000002F70A70102C0440F551F2A95E2F79A01CD
:10201000842B81A382A1842E8094882182A350EAFC
:102020005A95F1F746E1442E41E0542E80E090E0CD
:10203000D2014D912D01C42EC2943FE0C322D12C78
:10204000D60190967C90C880D9804F70D70102C08D
:10205000AA0FBB1F4A95E2F77A2241F4A701082E86
:1020600002C0440F551F0A94E2F702C040E050E05E
:102070004C295D295983488301968F309105C1F61B
:1020800081A1882181A382A1822B82A32296FB01B8
:1020900080819181A816B90641F0909270010E944A
:1020A000E8239093720180937101F1E00B321F07D6
:1020B00009F099CF809170018823B1F0809171016E
:1020C000909172010E94F423069770F0E8E5F1E028
:1020D000A4E6B1E0819191918D939D9341E0E43626
:1020E000F407C1F7109270010E94140981E0DF919A
:1020F000CF911F910F91FF90EF90DF90CF90BF9005
:10210000AF909F908F907F905F904F900895E82FB1
:10211000F0E0EE0FFF1FEC59FE4F80819181089592
:102120000895DF92EF92FF920F931F93CF93DF9367
:10213000453B08F044EB662309F44AC0C42FD0E0C5
:10214000AFEFB0E0A61BB109BE01A69FE001A79FBB
:10215000D00DB69FD00D1124FD2FDD2E7B01ED1A81
:10216000F1080CE310E0B8010E94DE32EB01BC0183
:10217000E69EC001E79E900DF69E900D1124B801D9
:102180000E94DE32C230D105B1F040F4209779F0E0
:10219000219709F58F2FD42E461B20C0C430D105BE
:1021A00099F068F02597B9F4842F861B17C08F2FFC
:1021B000D62EDF0E13C0862F8F0FD42E03C0D42E41
:1021C000D61A842F4F2F0AC0842F462F4F0F06C0D8
:1021D000842FD42E03C080E0D12C40E0E42FF0E027
:1021E000EA57F24F4491ED2DF0E0EA57F24F949107
:1021F000E82FF0E0EA57F24FE491D90111964C93A1
:1022000011979C931296EC93DF91CF911F910F91B0
:10221000FF90EF90DF90089588E090E00C945033A9
:10222000AB01BC0188E090E00C946E3383E08093B6
:102230006D0210926E028FEF80936F0284EB809399
:10224000700260916D0270916E0280916F029091A8
:1022500070020C94101160916D0260FF06C06695CB
:102260006F7370E080E090E0089560E070E0CB0173
:10227000089580916D0280FF06C064E170E085E7FB
:1022800092E00C947916E7E7F2E0DF0111971C92D7
:1022900011971C921082339682E0E33BF807A9F76E
:1022A000ECCF90916D0290FF0FC0E7E7F2E0DF0105
:1022B00011978C9311976C934083339692E0E33B94
:1022C000F907A9F70C9439110895CF92DF92EF9294
:1022D000FF920F931F93CF93DF9300D01F92CDB740
:1022E000DEB7F82EC92ED62EE42E00916D02109185
:1022F0006E0220916F023091700200937102109370
:102300007202209373023093740280916D0280FFF9
:102310001EC09E012F5F3F4F8F2D0E949110809114
:102320007102F0FA87F980937102F694209172029B
:1023300020782F29C0FA27F920937202D0927302D5
:10234000E09274024B8169818A810E9451110F9041
:102350000F900F90DF91CF911F910F91FF90EF9011
:10236000DF90CF9008958F929F92AF92BF92CF92BD
:10237000DF92EF92FF920F931F93CF93DF93EC01C5
:10238000862E942E80916D0280FF88C0982F9E77B4
:10239000923021F4CE010E94651156C0E82FE695D7
:1023A000EF739EE39E0F9F73943018F49090700229
:1023B0004BC09AE39E0F9F73993070F4881F882753
:1023C000881F90916E02292F220FC22FC82B97FBD6
:1023D000992790F9D92F38C087E28E0F8F738A30F2
:1023E00098F5F0E07997E0FF02C02FEF01C021E0FF
:1023F000EE7FE459F24F8591949164E170E00E9480
:10240000DE3226036001279FD00C11247E0188E96B
:10241000E81A8EEFF80A05E712E088E6A82EBB243A
:10242000B394C701B5010E94DE329801492D682D91
:102430000E949110EC0CFD1C0D5F1F4F92E0013BC0
:10244000190779F70E94391180916D029C2FC0FB0A
:1024500087F980936D02969580916E028078892B22
:10246000D0FB87F980936E0280926F029092700287
:1024700060916D0270916E0280916F029091700276
:10248000DF91CF911F910F91FF90EF90DF90CF9050
:10249000BF90AF909F908F900C941011DF91CF91CF
:1024A0001F910F91FF90EF90DF90CF90BF90AF9072
:1024B0009F908F90089520916D02221F2227221F46
:1024C00030916E02432F440F842F822B37FB9927C4
:1024D00090F9089668E671E00E94F232409170022D
:1024E00060916F020C94B31120916D02221F22277C
:1024F000221F30916E02432F440F842F822B37FB13
:10250000992790F9883091051CF4805A9E4F01C09C
:10251000089768E671E00E94F23240917002609183
:102520006F020C94B31160916F02862F90E0883F88
:10253000910514F4685F01C06FEF80916D02881FF0
:102540008827881F90916E02292F220F97FB9927C9
:1025500090F940917002822B0C94B31160916F023C
:10256000862F90E0089714F0685001C060E08091D9
:102570006D02881F8827881F90916E02292F220FD5
:1025800097FB992790F940917002822B0C94B3111C
:1025900040917002842F90E08D3A910514F4485FC9
:1025A00001C044EB80916D02881F8827881F90919D
:1025B0006E02292F220F97FB992790F960916F02E5
:1025C000822B0C94B31140917002842F90E00897F5
:1025D00014F0485001C040E080916D02881F8827A8
:1025E000881F90916E02292F220F97FB992790F94F
:1025F00060916F02822B0C94B31190916D0290FF49
:1026000044C09178811102C0926003C0833220F0EF
:10261000946490936D0205C08F73880F892B80930B
:102620006D0260916D0270916E0280916F029091C7
:1026300070020E94101180916D02982F9E77923047
:1026400019F41092880110C0982F96959F732EE36D
:10265000290F2F73273120F491E09093880104C053
:10266000995D9F739A3068F3881F8827881F90911F
:102670006E02292F220F97FB992790F94091700243
:1026800060916F02822B0C94B311089580913F02E8
:10269000816080933F0281E0809389010E94B32290
:1026A000811104C00E948D220E9416110E940C11FB
:1026B00060936D0270936E0280936F02909370022C
:1026C0006E7761F40E9416110E940C1160936D02E6
:1026D00070936E0280936F029093700281E08093FA
:1026E000880180916D0280FF04C086958F730C94E1
:1026F000FD12089580916D0286958F738F5F8332EE
:1027000008F081E00C94FD1280916D0286958F7324
:10271000815009F482E20C94FD12CF93DF93CDE651
:10272000D2E088818160888360916D0270916E0231
:1027300080916F02909170020E941011888186959D
:102740008F73DF91CF910C94FD12EDE6F2E0808162
:102750008E7F808360916D0270916E0280916F0216
:10276000909170020E941011109288012FEF80E763
:1027700092E0215080409040E1F700C000000C94AE
:10278000391180916D0280FD0C94A5130C948D136A
:10279000CF93C82F80918601909187010E94F423E6
:1027A000EC2FF0E0EE57F24FE491F0E08E179F0728
:1027B00008F442C00E94E823909387018093860129
:1027C0006091850170E080E090E00E94EC3020E0B4
:1027D00030E04FE753E40E9425302BED3FE049E421
:1027E00050E40E940D320E9470320E9492302BE41D
:1027F0003AE34EE25FE30E94C02F20EF3BEF48ED4B
:1028000052E40E940D320E94BE30462F80916D022C
:10281000881F8827881F90916E02292F220F97FB0F
:10282000992790F960916F02822B0E946511809127
:1028300085018F5F80938501CF910895CF93C82F35
:1028400080918301909184010E94F423EC2FF0E0A9
:10285000E158F24FE491F0E08E179F07E8F00E94F4
:10286000E8239093840180938301409170026091EA
:102870006F0280918101909182010E946511809187
:10288000810190918201019668E671E00E94DE323A
:102890009093820180938101CF910895DF92EF920E
:1028A000FF920F931F93CF93DF93D82E80917F01D8
:1028B000909180010E94F423ED2DE695F0E0E4581C
:1028C000F24FE491F0E08E179F07E8F10E94E823B1
:1028D0009093800180937F0105E712E0C0E0D0E093
:1028E00028E6E22EFF24F39480917D0190917E01F1
:1028F0008C0F9D1FB7010E94DE329801409170023B
:1029000060916F020E94911062960D5F1F4FC83652
:1029100081E0D80749F70E94391120917D0130915B
:102920007E01D0FE0AC0C9010196BE010E94DE32BE
:1029300090937E0180937D0106C021503109309330
:102940007E0120937D01DF91CF911F910F91FF9028
:10295000EF90DF900895AF92BF92CF92DF92EF9207
:10296000FF920F931F93CF93DF93C82F80FD03C077
:10297000BB24B39402C0BB24BA9480917B01909194
:102980007C010E94F423C695EC2FF0E0E758F24F4B
:10299000E491F0E08E179F0708F466C00E94E823D8
:1029A00090937C0180937B0155E7E52E52E0F52E54
:1029B00007E712E0C0E0D0E0F80131971082F7019C
:1029C0001082F801108244E0C42ED12CA12C8091F9
:1029D0007A018A0D87FD8C5E992787FD9095C8172F
:1029E000D907E9F4809170028C9DA0018D9D500D56
:1029F0001124559547955595479580916D02881FEF
:102A00008827881F90916E02592F550F97FB9927A1
:102A100090F9970160916F02852B0E949110AB0C89
:102A2000F1E0CF1AD108C114D10489F6219683E0D0
:102A3000E80EF11C0D5F1F4FC431D10509F0BCCF6A
:102A40000E94391180917A0191E0B91206C081117A
:102A500002C083E107C0815005C090E00196BE012D
:102A60000E94F23280937A01DF91CF911F910F91F2
:102A7000FF90EF90DF90CF90BF90AF9008950F93AD
:102A80001F93CF93DF93C82F8091780190917901A4
:102A90000E94F423EC2FF0E0EA58F24FE491F0E0CA
:102AA0008E179F0708F467C00E94E823909379016E
:102AB00080937801E7E7F2E0DF0111971C9211970C
:102AC0001C921082339682E0E33BF807A9F7C0E03E
:102AD000D0E004E110E0CE01B8010E94F232209172
:102AE0007701332727FD3095FC01EE0FFF1FC2173A
:102AF000D3070CF120910201332727FD30952C17C5
:102B00003D07CCF09F01280F391F2B583D4F809176
:102B10006D02881F8827881F90916E02592F550FCC
:102B200097FB992790F94091700260916F02852B75
:102B30000E94911007C0E80FF91FEB58FD4F11825A
:102B4000108212822196C431D10529F60E943911D2
:102B50002091010180917701820F809377019091FC
:102B60000201920F90930201191614F483311CF0A4
:102B7000219520930101DF91CF911F910F9108952D
:102B8000EF92FF920F931F93CF93DF938091750184
:102B9000909176010E94F423883E9340C8F10E94F0
:102BA000E8239093760180937501C0917301D091D1
:102BB00074012196C170DD27D0937401C093730115
:102BC00005E712E0F12C78E7E72E8F2D8695FE01C0
:102BD000E80FF11DCF018170992798014091700293
:102BE00060916F02FC01EE9EC001EF9E900D1124DA
:102BF0000E949110F3940D5F1F4FF4E1FF12E5CF97
:102C0000DF91CF911F910F91FF90EF900C943911AC
:102C1000DF91CF911F910F91FF90EF9008958091D8
:102C20008801882391F120916D02822F86958F7300
:102C30009EE3980F9F73943018F482500C94C8133D
:102C40009AE3980F9F73933018F486500C941E14D7
:102C500097E3980F9F73963018F489500C944E1494
:102C600091E3980F9F73963018F48F500C94AB1427
:102C70009BE2980F9F73933018F485510C943F1585
:102C80002E77203311F40C94C01508953EB1242FF3
:102C9000209523233EB1342B4FB7F894FC01680FE5
:102CA000791FE617F70789F0819198E03EB9000097
:102CB00000C087FF2EB9880F000000C000C000C010
:102CC0002EB900C09A9591F7ECCF4FBF08952DB162
:102CD000242B2DB99B01220F331F260F371FB9015B
:102CE0000E94461687EC90E00197F1F700C00000C3
:102CF000089544E00C94671690938F0180938E01A1
:102D00000895E0918E01F0918F01309721F00190AC
:102D1000F081E02D099480E00895E0918E01F0911A
:102D20008F01309721F00280F381E02D09940895FE
:102D3000E0918E01F0918F01309721F00480F581B0
:102D4000E02D0994089520918C0130918D01821716
:102D5000930771F090938D0180938C01E0918E0127
:102D6000F0918F01309721F00680F781E02D0994D2
:102D7000089520918A0130918B018217930771F099
:102D800090938B0180938A01E0918E01F0918F01E5
:102D9000309721F00084F185E02D0994089508957D
:102DA0000C94CF1681E008950E94DF230E948D0FBE
:102DB0000E94B3240E94E8270C9446135F926F92FE
:102DC0007F928F929F92AF92BF92CF92DF92EF92BB
:102DD000FF920F931F93CF93DF93CDB7DEB72A9760
:102DE0000FB6F894DEBF0FBECDBF0E94DB0F0E946E
:102DF000D216811111C08FEF89838A831B820E94B2
:102E0000E8238160782F9D838C8349815A816B816F
:102E10008D810E949C1757C091E9C92E91E0D92E4F
:102E200000E010E0AA24A394B12C502E802F0E9421
:102E300087103C01F601E190F1906F01E826F92638
:102E4000E114F10431F40F5F1F4F0630110569F7EB
:102E5000D2CF80913F0281FD0E94901020E030E0AF
:102E60004501022E02C0880C991C0A94E2F7C401A5
:102E70008E219F21892B09F12E835F826820792082
:102E800081E0672809F480E088870E94E823816058
:102E9000782F9A8789874E815F8168858A850E940D
:102EA0009C17F801EE0FFF1FEF56FE4F80819181B6
:102EB000882599259183808306C02F5F3F4F2F304F
:102EC000310571F6C0CF0E945327109190010E94E6
:102ED00081161817D9F00E948116809390012A96C6
:102EE0000FB6F894DEBF0FBECDBFDF91CF911F911B
:102EF0000F91FF90EF90DF90CF90BF90AF909F9099
:102F00008F907F906F905F900C94A50C2A960FB6CF
:102F1000F894DEBF0FBECDBFDF91CF911F910F910F
:102F2000FF90EF90DF90CF90BF90AF909F908F90E9
:102F30007F906F905F900895CF93DF93CDB7DEB70A
:102F40002B970FB6F894DEBF0FBECDBF4F835887C7
:102F500069877A878B87DE01119686E0FD011192E1
:102F60008A95E9F785E0FE01379601900D928A95E2
:102F7000E1F749815A816B817C818D819E810E941C
:102F8000061F2B960FB6F894DEBF0FBECDBFDF91A4
:102F9000CF910895FC01808191810E94C221089502
:102FA000882309F4F4C08238C1F40E94811681FD9F
:102FB000EEC069E380910301909104010E944923CE
:102FC0000E9421222FEF81EE94E02150804090401A
:102FD000E1F700C0000069E319C08338F9F40E94EA
:102FE000811680FDD4C063E58091030190910401B6
:102FF0000E9449230E9421222FEF81EE94E021506C
:1030000080409040E1F700C0000063E5809103013B
:10301000909104010E9454230C9421228438C1F41D
:103020000E94811682FDB3C067E4809103019091F4
:1030300004010E9449230E9421222FEF81EE94E097
:10304000215080409040E1F700C0000067E4DECFEF
:103050009CEF980F913A40F4682F80910301909172
:1030600004010E944923D8CF90E2980F983050F481
:10307000877091E001C0990F8A95EAF7892F0E9425
:103080005722CACF9BE5980F933070F4853A29F008
:10309000863A31F482E890E005C081E890E002C011
:1030A00083E890E00C94A31698E5980F953108F00A
:1030B0006EC0883A61F1893A69F18A3A71F18B3AC6
:1030C00079F18C3A81F18B3B89F18C3B91F18D3A0E
:1030D00099F1803BA1F18E3AA9F18F3AB1F1813B90
:1030E000B9F1823BC1F1833BC9F1843BD1F1853B0E
:1030F000D9F1863BE1F1873BE9F1883BF1F1893B6E
:10310000F9F18A3B09F03FC08AE292E03EC082EECC
:1031100090E03BC089EE90E038C08AEE90E035C088
:1031200085EB90E032C086EB90E02FC083EB90E01F
:103130002CC084EB90E029C087EB90E026C08CEC9B
:1031400090E023C08DEC90E020C083E891E01DC0AA
:103150008AE891E01AC082E991E017C084E991E021
:1031600014C081E292E011C083E292E00EC084E2DA
:1031700092E00BC085E292E008C086E292E005C0D2
:1031800087E292E002C080E090E00C94B9160895C6
:10319000882309F45DC0823879F40E94811681FF8A
:1031A00057C069E380910301909104010E94492373
:1031B0000E94212269E310C08338B1F40E94811675
:1031C00080FF46C063E580910301909104010E9455
:1031D00049230E94212263E580910301909104011B
:1031E0000E9454230C942122843879F40E94811681
:1031F00082FF2EC067E480910301909104010E9438
:1032000049230E94212267E4E7CF9CEF980F913A6F
:1032100010F4682FE1CF90E2980F983050F4877047
:1032200091E001C0990F8A95EAF7892F0E945D22EB
:10323000D9CF9BE5980F933020F480E090E00C9478
:10324000A316885A853120F480E090E00C94B916DA
:103250000895882321F00E9457220C94212208957A
:10326000882321F00E945D220C94212208958F92E0
:103270009F92BF92CF92DF92EF92FF920F931F9394
:10328000CF93DF9300D0CDB7DEB74C01472FFC01C1
:10329000C580C2949FE0C922D280DD2031F07983BD
:1032A0006A830E9474226A81498149836A830E94E9
:1032B0001A2249816A81882389F0DD2079F080E231
:1032C000860F883058F082E00E9403220E941A2262
:1032D000BB24B394B82649816A8101C0B12CE42E85
:1032E000E2948FE0E822F12CF701E159FF4F0C94B2
:1032F0002833842F807F142F1F70882311F012959C
:10330000107FDD20C1F0112309F4DDC180E2860FBA
:10331000883010F0611105C0812F6A830E94572206
:1033200004C0812F6A830E9467226A816A830E9497
:1033300021226A81C8C1862F6A830E94C8186A81C7
:10334000112309F407C280E2860F883010F0611162
:1033500004C0812F0E945D2203C0812F0E946D2234
:103360000E942122F7C1242F207F842F8F702032CA
:1033700011F08295807F662319F06130B9F022C088
:10338000DD2049F0CC2009F452C1F1E0CF124FC149
:103390000E948722DFC1CC2021F021E0C21609F46F
:1033A000D9C189830E948A22898147C1DD2029F001
:1033B00095E09C1508F4CEC13AC1E4E0EC1508F4A0
:1033C000C9C13BC1DD2051F0CC2009F430C1F4016A
:1033D000958190FF78C19F70958329C1CC2009F415
:1033E0002CC182C1242F26952695237030E021150B
:1033F000310521F02130310561F0ACC1DD2021F033
:10340000862F942F937002C080E090E00E94A31654
:10341000B1C1DD2021F0862F942F937002C080E08F
:1034200090E00E94B916A6C1DD20F9F0653F51F089
:10343000663F71F0643FA9F48091B1029091B202AD
:1034400081600BC08091B1029091B202826005C090
:103450008091B1029091B20284609093B202809305
:10346000B102862F0E945B2622C0653F51F0663F65
:1034700091F0643FC9F48091B1029091B2028E7FC5
:1034800005C08091B1029091B2028D7F9093B202FB
:103490008093B10209C02091B1023091B2022B7F1A
:1034A0003093B2022093B102862F0E94C3260E945D
:1034B000482760C1842F837009F04EC0D11056C1D7
:1034C000262F229526952770220F220F862F8F7088
:1034D000C82ED12CE12CF12C022E04C0CC0CDD1C0A
:1034E000EE1CFF1C0A94D2F764FF10C06FE070E07E
:1034F00080E090E004C0660F771F881F991F2A950F
:10350000D2F7609570958095909503C060E070E06B
:10351000CB01242F26952695237030E022303105EB
:1035200069F02330310589F06C297D298E299F2986
:103530002130310571F00E94552018C16C297D2978
:103540008E299F290E94672011C10E945520C70122
:10355000B6010E9443200AC1DD2019F0842F81703A
:1035600001C08695882309F401C1262F229526954E
:103570002770220F220F862F8F70C82ED12CE12C9E
:10358000F12C022E04C0CC0CDD1CEE1CFF1C0A9496
:10359000D2F764FF10C06FE070E080E090E004C0FC
:1035A000660F771F881F991F2A95D2F7609570952F
:1035B0008095909503C060E070E0CB01242F2695A4
:1035C0002695237030E02230310569F02330310533
:1035D00089F06C297D298E299F292130310571F0D0
:1035E0000E940321C3C06C297D298E299F290E9436
:1035F0001521BCC00E940321C701B6010E94F12021
:10360000B5C0062F10E0F801E05EF109E531F105E3
:1036100008F055C0E158FF4F0C942833162F1F7047
:10362000842F8F71DD2031F00E949C20812F0E9419
:10363000291990C00E94B720812F0E9430198AC09A
:10364000DD2049F0F4E0FC1508F484C0842F8F716C
:103650000E94D6207FC025E02C1508F47BC0F6CF51
:10366000DD2039F0842F8F710E949C2073C0DD20F3
:10367000C9F3842F8F710E94B7206CC0DD2029F020
:10368000842F8F710E948D2065C00E94882062C0A7
:10369000DD2051F0142F1F71812F0E949C2063E0C8
:1036A000812F0E94FA2156C081E00E94032281E00E
:1036B0008C1508F04FC082E00E9403224BC0DD2031
:1036C00031F0CC2079F2862F0E94D01743C0CC2055
:1036D00081F2693349F49FEFE7EEF3E09150E04067
:1036E000F040E1F700C00000862F0E94C81832C0E9
:1036F0004F70C4010E9458080E94B31F3BC0D110F4
:1037000039C0942F9F70892F90E08230910599F0F5
:103710003CF4009769F00197E9F40E9421282AC03F
:103720008430910571F054F00597A1F480E00AC04F
:103730000E9405281FC00E943D281CC00E945728D7
:1037400019C083E00E947C2815C04F70C4010E94FC
:103750005F0810C028E0E216F10441F05CF09AE046
:10376000E91AF108E2E0EE16F10420F40E94811655
:103770000E94A50CBB20F1F00E94F62180FD1AC02A
:10378000F40112820E94F0210E949C20C4010E9438
:10379000E81B0E94F0210F900F90DF91CF911F91B5
:1037A0000F91FF90EF90DF90CF90BF909F908F9000
:1037B0000C94B7200F900F90DF91CF911F910F9134
:1037C000FF90EF90DF90CF90BF909F908F900895E3
:1037D0000F931F93CF93DF93EC01288139818B8165
:1037E0009C81892B31F03F3F11F080E003C02F3FD7
:1037F000E1F781E0811113C0CE010E9458098823AE
:1038000071F0688179818A810E94CD218C010E94AA
:1038100027210E944020B801CE010E943719DF9174
:10382000CF911F910F9108950E9474220E948422CB
:1038300080910301909104010E945F230E94212244
:103840000E94DC270E94482780E090E00E94A31697
:1038500080E090E00C94B9160E9464220C94141C31
:103860000E94C221E92FE295EF70F0E03297EE302E
:10387000F105B8F4EC56FF4F0C942833803F59F013
:1038800018F4803E70F407C0843F59F404C0803EB1
:1038900010F0813F31F481E0089593FB882780F98F
:1038A000089580E00895CF93DF9300D000D01F9259
:1038B000CDB7DEB70F900F900F900F900F90DF9164
:1038C000CF910895CF93DF9300D000D000D0CDB733
:1038D000DEB726960FB6F894DEBF0FBECDBFDF91E0
:1038E000CF9108951F93CF93DF93C0919E0116E06F
:1038F00080919F01C81799F0D0E01C9FF0011D9F97
:10390000F00D1124E056FE4F408151816281738198
:10391000848195810E94621C2196C770E9CFDF9156
:10392000CF911F9108954091D0015091D1016091A4
:10393000D2017091D3018091D4019091D5010C9462
:10394000621CCF938091D50182958F7009F05FC082
:103950008091D201882309F45AC020919E01A09140
:103960009F016091D0017091D1018091D30190911C
:10397000D40131E06F3F09F030E0B32FC6E02A17E1
:1039800009F445C0009721F07F3F21F44B2F03C07D
:1039900041E001C040E030E040FD35C0C29FF00191
:1039A000C39FF00D1124E056FE4F418174132BC0CC
:1039B0004081641328C04281411125C04381548154
:1039C0004817590710F441505109481B590B483CFE
:1039D0005105C8F48091D5018F7080618093D50125
:1039E00086E0829FF001839FF00D1124EB55FE4F7E
:1039F00080818F708061808380ED91E00E94E81B60
:103A0000CF910C94721C2F5F3F4F2770B8CFCF918E
:103A10000895CF92DF92EF92FF920F931F93CF936F
:103A2000DF93CDB7DEB762970FB6F894DEBF0FBE57
:103A3000CDBF8C0185E0F801DE011D9601900D924D
:103A40008A95E1F7D8014C9111965C9111971296E5
:103A50006C9112971396ED90FC9014977091D00191
:103A6000E091D1012091D3013091D401211531058C
:103A700031F0EF3F31F481E07F3F19F403C081E082
:103A800001C080E0B82FB170CB2E80FD6BC1D0900B
:103A9000D201DD2009F4F5C0F091D501E216F3065C
:103AA00038F0C701821B930B883C910548F09DC0FC
:103AB000209530952E0D3F1D283C310508F095C00E
:103AC0008F2F807F09F052C0E51314C0741312C009
:103AD000D62E61110FC0FF70F061F093D5010E94E6
:103AE000931C80ED91E00E94E81B8091D501F801C4
:103AF00085837CC1EF2831F05F3F31F481E04F3F97
:103B000019F403C081E001C080E080FD03C081E0C2
:103B1000862701C080E0F82FF170FF2E80FF1CC0C7
:103B200080919E0120919F0136E0821709F438C1EF
:103B300090E0389FF001399FF00D1124E056FE4FC0
:103B40007181571306C07081471303C072816713D8
:103B500003C001968770E9CFD62E662309F446C1CB
:103B60008091D50181608093D50155C0E51308C0CF
:103B7000741306C0611104C0D8011596FC93AEC041
:103B80004D875E878D859E856A8B0E94301C6A8971
:103B9000882329F1D62E662311F12091D501822F99
:103BA00082958F7090E002970CF462C08091D001F2
:103BB0009091D10198878F831986FB86EA862C879E
:103BC000CE01079653C0E51741F14D875E878D857D
:103BD0009E856A8B0E94301C6A89811130C0C801A1
:103BE0000E94E81BDD24D39401C18F2F807F59F7F9
:103BF0007E2DF98AE88A89890E94531C80ED91E024
:103C00000E94E81BE0EDF1E086E0DF011D928A955D
:103C1000E9F70E94931CD12CE9C07413D6CF61112F
:103C2000D4CFD8011596FC93C8010E94E81BE0EDA3
:103C3000F1E086E0DF011D928A95E9F7D7C0D62E24
:103C4000662369F22091D501822F82958F7090E0D2
:103C5000029774F08091D0019091D1019A83898369
:103C60001B82FD82EC822E83CE0101960E94E81B0E
:103C700086E0F801A0EDB1E001900D928A95E1F7A0
:103C80008AC0E216F30628F0C701821B930B9C0141
:103C900004C0209530952E0D3F1D283C310508F0BD
:103CA00053C0D62E662309F49ACFE5132CC07413A3
:103CB0002AC08091D50180FD1DC0982F92959F70DC
:103CC000C9F0D80115968C9315979F3039F09F5FF6
:103CD0009295907F8F70892B15968C93C8010E94C6
:103CE000E81B86E0F801A0EDB1E001900D928A9505
:103CF000E1F753C086E0F801A0EDB1E001900D922C
:103D00008A95E1F773C04D875E878D859E850E94F9
:103D1000301C882381F096E0F801A0EDB1E001901D
:103D20000D929A95E1F78A8B0E94A11C0E94931C28
:103D30008A89D82E5BC08091D50181608093D5019E
:103D4000C8010E94E81B52C07E2DF98AE88A898941
:103D50000E94531CE0EDF1E086E0DF011D928A95A0
:103D6000E9F71BC0662309F43ACF4D875E878D853E
:103D70009E850E94301CD82E882309F430CF86E01F
:103D8000F801A0EDB1E001900D928A95E1F780ED88
:103D900091E00E94CA170E94A11C0E94931C26C099
:103DA0004D875E878D859E850E94C221292F229591
:103DB0002F7030E0223031052CF49F7041F08111DA
:103DC00006C00CC0243031052CF49F7049F4805E8D
:103DD000883020F0C8010E94E81BCF2CDC2C06C0E4
:103DE000D80115969C91907F91F7F8CF8D2D629612
:103DF0000FB6F894DEBF0FBECDBFDF91CF911F91FC
:103E00000F91FF90EF90DF90CF9008951F93CF9385
:103E1000DF93CDB7DEB72C970FB6F894DEBF0FBE99
:103E2000CDBF4F83588769877A878B879C87CE0160
:103E300007960E94091D8823C1F02F8138858A8545
:103E40009B85892B31F03F3F11F080E003C02F3F6D
:103E5000E1F781E0811147C04F81588569857A85F6
:103E60008B859C850E94621C3EC086E0FE013796D1
:103E7000DE01119601900D928A95E1F7FF81E885A8
:103E80004A855B854115510531F0EF3F31F481E002
:103E9000FF3F19F403C081E001C080E080FD23C032
:103EA00020919F0130E0C9010196877099276091A8
:103EB0009E0170E086179707F1F1F983EA835D832D
:103EC0004C8396E0929FD001939FB00D1124A05691
:103ED000BE4FFE01319601900D929A95E1F78093C5
:103EE0009F010E94721C16E080919E0190919F019B
:103EF000891779F1189FC001112480569E4F0E94A6
:103F0000091D882331F1E0919E011E9FF0011124CB
:103F1000E056FE4F40815181628173818481958199
:103F20000E94621C80919E0190E001968770992703
:103F300080939E01D9CF0E942C1C10929F01109259
:103F40009E01E0EDF1E086E0DF011D928A95E9F740
:103F5000CACF2C960FB6F894DEBF0FBECDBFDF914F
:103F6000CF911F910895EF92FF920F931F93CF93DC
:103F7000DF93FC01009709F46FC0F12CEE24E39469
:103F8000EF0121968491843740F4843008F055C0C5
:103F9000813081F0823021F15FC0853709F447C05C
:103FA000C0F19CE7980F903708F056C08F770E94B9
:103FB000C81845C08F010E5F1F4FFE01849190E22B
:103FC000980F983050F48770FE2D01C0FF0F8A952E
:103FD000EAF78F2F0E94772215C00E94D01714C0D5
:103FE0008F010E5F1F4FFE01849190E2980F983071
:103FF00068F48770FE2D01C0FF0F8A95EAF78F2FB6
:104000000E947D220E942122E80119C00E94C81846
:10401000FBCFCF010296FE01C491CC2361F0EFE902
:10402000FFE03197F1F700C00000C150F6CFCF019B
:104030000296FE01F490EC0102C00E94D0178F2D71
:10404000882341F0EFE9FFE03197F1F700C000006D
:104050008150F6CFFE0194CFDF91CF911F910F9148
:10406000FF90EF90089508950E9433206093160208
:104070007093170280931802909319020C94141CE9
:1040800008950C9434200F931F9300911602109101
:1040900017022091180230911902602B712B822B8C
:1040A000932B1F910F910C9434200F931F93009129
:1040B0001602109117022091180230911902602304
:1040C0007123822393231F910F910C9434200F931B
:1040D0001F9300911602109117022091180230913F
:1040E000190260277127822793271F910F910C9443
:1040F000342008950C9479200E947A206093120253
:104100007093130280931402909315020C94141C64
:1041100060E070E0CB010C947C2041E050E060E076
:1041200070E004C0440F551F661F771F8A95D2F7B1
:10413000CB01BA010C947C2041E050E060E070E0DB
:1041400004C0440F551F661F771F8A95D2F78091D0
:10415000120290911302A0911402B0911502482B03
:10416000592B6A2B7B2BCB01BA010C947C2041E0AC
:1041700050E060E070E004C0440F551F661F771FD9
:104180008A95D2F74095509560957095809112026E
:1041900090911302A0911402B09115024823592363
:1041A0006A237B23CB01BA010C947C2041E050E0D0
:1041B00060E070E004C0440F551F661F771F8A95AA
:1041C000D2F78091120290911302A0911402B09143
:1041D0001502482759276A277B27CB01BA010C947F
:1041E0007C200F931F9300911202109113022091D3
:1041F000140230911502602B712B822B932B1F918F
:104200000F910C947C200F931F9300911202109138
:10421000130220911402309115026023712382232E
:1042200093231F910F910C947C200F931F93009167
:10423000120210911302209114023091150260278E
:104240007127822793271F910F910C947C2008954A
:104250002FE0929F800D1124482F46954695469554
:104260008770B1E001C0BB0F8A95EAF785E0489FEF
:10427000A00111244A525E4F80E090E070E0FA0104
:10428000E80FF91FA0819B01082E02C036952795E3
:104290000A94E2F72170332721952A272B232A2716
:1042A000208301968530910551F708952FE0929F64
:1042B000800D1124682F669566956695982F9770E6
:1042C00085E0689FB00111246A527E4F40E050E0C3
:1042D00080E0FB01E40FF51F208130E0092E02C0D1
:1042E000369527950A94E2F721703327042E01C0F2
:1042F000220F0A94EAF7822B4F5F5F4F453051053A
:1043000041F70895CF92DF92EF92FF920F931F93A0
:10431000CF93DF93EC01C0901602D0901702E0908B
:104320001802F09019028091120290911302A0914C
:104330001402B0911502C82AD92AEA2AFB2A0FE1F1
:1043400010E0B701A601002E04C076956795579539
:1043500047950A94D2F740FD05C00150110988F72E
:1043600080E007C0BE01802F0E94C10C0197A9F315
:10437000802FDF91CF911F910F91FF90EF90DF90F1
:10438000CF900895CF93DF93EC010E948221BE016C
:104390000E94C10CDF91CF9108951F93CF93DF93BB
:1043A000EB0190919D01992321F0CB010E94C22144
:1043B00013C0882349F0CB010E948221182F682F57
:1043C000CE010E94282104C0CB010E945621182F43
:1043D000BE01812F0E94C10CDF91CF911F910895E2
:1043E00080911A02859585958595089580911A0288
:1043F0008770089598E0899F90011124622B609343
:104400001A020C949C2040911A0280958423809378
:104410001A02982F977069F450E0282F332727FD50
:1044200030954217530729F08595859585950C940D
:10443000B720089590911A02977081E009F480E006
:104440000895E0910301F091040180913E02808380
:10445000E0910301F0910401808190913D02892B4C
:104460008083E0910301F0910401808190913C02EE
:10447000892B808390911B02992381F0E0910301A5
:10448000F09104018081892B8083809103019091B8
:1044900004010E94E222811110921B02809103010B
:1044A000909104010C948D1680913E020895909194
:1044B0003E02982B90933E020895809590913E0283
:1044C000982390933E02089510923E020895909191
:1044D0003D02982B90933D020895809590913D0266
:1044E000982390933D02089510923D020895909173
:1044F0003C02982B90933C020895809590913C0249
:10450000982390933C02089510923C020895809362
:104510001B02089510921B0208956DEE7EEF80E05D
:1045200090E00E947A3360E082E090E00E945C3389
:1045300060E083E090E00E945C3360E084E090E023
:104540000E945C3360E085E090E00E945C3360E0B4
:1045500086E090E00E945C3340E050E0BA0188E0E1
:1045600090E00C946E3380E090E00E94563321E09E
:104570008D3E9E4F09F020E0822F089582E090E06A
:104580000C944833682F82E090E00C945C3383E015
:1045900090E00C944833682F83E090E00C945C33F7
:1045A00084E090E00C944833682F84E090E00C9411
:1045B0005C3386E090E00C944833682F86E090E00E
:1045C0000C945C3320E030E040E0FC01E20FF31F8C
:1045D000518151114F5F2F5F3F4F2F313105A9F7A7
:1045E000842F089520E030E04FEFFC01E20FF31F2D
:1045F0005281561799F04F3F19F4511101C0422FC3
:104600002F5F3F4F2E31310581F74F3F39F0FC01CD
:10461000E40FF11D47FDFA9562830895089520E0A7
:1046200030E0FC01E20FF31F4281461301C0128209
:104630002F5F3F4F2E313105A1F70895262F269584
:10464000269526952F3170F4FC01E20FF11D67705D
:1046500021E030E0062E01C0220F0A94EAF78181A2
:10466000822B81830895262F2695269526952F3116
:1046700078F4FC01E20FF11D677021E030E0062EB6
:1046800001C0220F0A94EAF7209581812823218313
:10469000089520911501222329F02091B70227FDCA
:1046A0000C941E230C94F22220911501222329F050
:1046B0002091B70227FD0C9433230C940F2320E0A4
:1046C00030E0FC01E20FF31F11822F5F3F4F2F31CB
:1046D0003105B9F708958091BE02843039F1109206
:1046E000400220E488E190E00FB6F894A89580930A
:1046F00060000FBE2093600080E00E94160980E0F9
:104700000E94A50C83B7817F846083BF83B78160DB
:1047100083BF7894889583B78E7F83BF88E10FB677
:10472000F89480936000109260000FBE0895089581
:104730000895CF930E9497230E94DB0F0E94982335
:10474000C0E08C2F0E948710892B29F4CF5FC630E0
:10475000C1F780E001C081E0CF9108950E942C1C38
:104760000E94E8270E9481160C94A50C1F920F92BC
:104770000FB60F9211248F939F93AF93BF938091A5
:104780004002811113C08091B3029091B402A091B4
:10479000B502B091B6024196A11DB11D8093B3023E
:1047A0009093B402A093B502B093B602BF91AF91BB
:1047B0009F918F910F900FBE0F901F90189582E0E0
:1047C00084BD93E095BD9AEF97BD80936E000895E8
:1047D0002FB7F8948091B3029091B402A091B502E2
:1047E000B091B6022FBF0895CF92DF92EF92FF9261
:1047F0000F931F932FB7F8944091B3025091B402D6
:104800006091B5027091B6022FBF6A017B01EE2460
:10481000FF248C0120E030E0C016D106E206F3064A
:1048200010F441505109481B590BCA011F910F91B7
:10483000FF90EF90DF90CF90089578941F920F92A1
:104840000FB60F9211248F939F93AF93BF938091D4
:10485000B3029091B402A091B502B091B602019654
:10486000A11DB11D8093B3029093B402A093B50231
:10487000B093B602BF91AF919F918F910F900FBEF1
:104880000F901F90189581E08093E00080E2809364
:10489000D8001092C9008FE19EE40197F1F700C0A3
:1048A000000087E090EBDC018093C7029093C80280
:1048B000A093C902B093CA022CE088E190E00FB641
:1048C000F894A895809360000FBE20936000FFCFFE
:1048D000BF92CF92DF92EF92FF920F931F93CF93ED
:1048E000DF93B12C01E010E0E82EF12C8B2D0E941B
:1048F00087106C01C0E0D0E098010C2E02C0220F9E
:10490000331F0A94E2F72C213D21232B29F4219611
:10491000CF30D10589F70AC06C2F7B2D80E00E9433
:10492000A70CE816F90699F781E005C0B39486E074
:10493000B812DCCF80E0DF91CF911F910F91FF90F3
:10494000EF90DF90CF90BF900895CF93C82F8CE267
:104950000E946824882321F08C2FCF910C94682426
:1049600080E0CF910895CF930E94B322811102C0BD
:104970000E948D22C5E6C15049F00E94DB0F8FE3F3
:104980009CE90197F1F700C00000F5CF89E20E9491
:10499000A52481110DC18AE20E94A52481110E94E3
:1049A0008D2285E00E94A52481110E9443240E944B
:1049B000BE2280933F0287E00E94A524882399F1BC
:1049C0008BE10E94A524882351F090913F0291FB36
:1049D000882780F921E0822780FB91F922C08EE0B0
:1049E0000E94A524882351F090913F0292FB8827D2
:1049F00080F921E0822780FB92F913C080E10E94B8
:104A0000A52490913F02882341F093FB882780F9E9
:104A100021E0822780FB93F904C0892F809580FBD9
:104A200090F990933F0280913F020E94C2220E941F
:104A3000D02290E09093B8028093B70280EE0E945B
:104A4000A524882341F08091B702982F909590FB80
:104A500080F98093B70289E30E94A524882359F046
:104A60009091B70291FB882780F921E0822780FB93
:104A700091F99093B70282EE0E94A524882359F001
:104A80009091B70292FB882780F921E0822780FB72
:104A900092F99093B70286EE0E94A524882359F0DC
:104AA0009091B70293FB882780F921E0822780FB51
:104AB00093F99093B70283EE0E94A524882359F0BE
:104AC0009091B70294FB882780F921E0822780FB30
:104AD00094F99093B70285E30E94A524882359F0A6
:104AE0009091B70295FB882780F921E0822780FB0F
:104AF00095F99093B70281E30E94A524882359F089
:104B00009091B70296FB882780F921E0822780FBED
:104B100096F99093B70281E10E94A524882359F069
:104B20009091B70297FB882780F921E0822780FBCC
:104B300097F99093B7028091B7020E94D42287E23E
:104B40000E94A524C82F8EE10E94A5248111C26075
:104B50008FE10E94A5248111C46080E20E94A524F7
:104B60008111C86081E20E94A5248111C06182E2A6
:104B70000E94A5248111C06283E20E94A5248111B4
:104B8000C06484E20E94A524882311F0C06802C09A
:104B9000CC2329F08C2F0E94CB226C2F03C00E94C3
:104BA000C722682F70E080E090E0CF910C94412004
:104BB000CF9108958091430280FF0BC0609108015E
:104BC00085E0689FB0011124759567957595679587
:104BD0002AC081FF09C06091080185E0689FB0018B
:104BE0001124759567951FC082FF07C06091080169
:104BF00085E0689FB001112416C04091440244230F
:104C0000C9F060910701461788F72091080185E0F7
:104C1000289F90011124429FC001439F900D1124B1
:104C200070E00E94F2326038710540F46115710540
:104C300039F002C065E070E0862F08958FE708958F
:104C400081E008958091430280FF08C060910601D1
:104C500070E0759567957595679521C081FF06C0D1
:104C60006091060170E07595679519C082FF04C0D8
:104C70006091060170E010C0809144028823C1F069
:104C8000609105018617A0F790910601989FC001D9
:104C9000112470E00E94F2326038710528F4611529
:104CA000710521F0862F08958FE7089581E008951A
:104CB00061E070E0F4CF803F21F40E94DA25819515
:104CC00004C0813F29F40E94DA25809347020895A9
:104CD000823F21F40E94DA25819504C0833F29F4A4
:104CE0000E94DA25809346020895893F19F40E94B4
:104CF000222605C08A3F31F40E94222681958093A6
:104D0000480208958B3F21F40E942226819504C019
:104D10008C3F29F40E942226809349020895843F03
:104D200021F480914502816017C0853F21F4809174
:104D30004502826011C0863F21F480914502846063
:104D40000BC0873F21F480914502886005C0883FF1
:104D500031F48091450280618093450208958D3F32
:104D600021F48091430281600BC08E3F21F4809139
:104D70004302826005C08F3F29F480914302846022
:104D8000809343020895803F39F48091470287FF62
:104D90006CC01092470269C0813F29F4809147029C
:104DA0001816BCF362C090914602823F29F497FF27
:104DB0005CC01092460259C0833F19F41916CCF317
:104DC00054C0893F41F48091480218160CF04DC040
:104DD000109248024AC08A3F29F48091480287FF16
:104DE00044C0F6CF8B3F39F48091490287FF3DC024
:104DF000109249023AC08C3F29F48091490218165A
:104E0000BCF333C0843F21F4809145028E7F17C0EC
:104E1000853F21F4809145028D7F11C0863F21F4AA
:104E2000809145028B7F0BC0873F21F48091450222
:104E3000877F05C0883F31F4809145028F7E809343
:104E4000450213C08D3F21F4809143028E7F0BC039
:104E50008E3F21F4809143028D7F05C08F3F29F45E
:104E6000809143028B7F809343028091460281119F
:104E70000EC08091470281110AC0809148028111C1
:104E800006C080914902811102C010924402089527
:104E900085E492E00E9498160E94E82390934202D3
:104EA0008093410208951F93CF93DF938091410235
:104EB000909142020E94F42340914402442321F045
:104EC0002091090130E006C020910A015AE0259F97
:104ED000900111248217930708F46AC0809146025A
:104EE00010914702D0914802C0914902811107C038
:104EF000111105C0D11103C0CC2309F459C04F3F93
:104F000019F04F5F40934402181624F40E94DA25EA
:104F1000809346028091460287FF05C00E94DA25F1
:104F2000819580934602111624F40E94DA2580931D
:104F300047028091470287FF05C00E94DA258195CC
:104F40008093470220914602222379F04091470244
:104F5000442359F055EB2503900111243093460268
:104F60004503C0011124909347021D1624F40E94AA
:104F70002226809348028091480287FF05C00E9444
:104F800022268195809348021C1624F40E94222632
:104F9000809349028091490287FF05C00E94222622
:104FA000819580934902DF91CF911F910C944827FE
:104FB000DF91CF911F910895E5E4F2E085E0DF01F4
:104FC0001D928A95E9F710924402109243020895C7
:104FD0000E94B322811102C00E948D220E94D92218
:104FE0008093B902282F269530E02430310524F033
:104FF000817086608093B9028091B90280FF02C0FF
:10500000869501C080E00C9416092091B902322FD8
:105010003695832F90E0039744F491E0930F990F16
:10502000822F8170892B8093B9028091B9028160AF
:105030008093B9020E94DD228091B90286950C947A
:1050400016098091B902982F969591F09158990F71
:105050008170892B8093B9028E7F91E009F490E0F2
:105060008091B90290FB80F98093B9020E94DD2201
:105070008091B90286950C9416098091B902982FF7
:10508000909590FB80F98093B902813019F483E008
:105090008093B9028091B9020E94DD228091B90209
:1050A00080FF02C0869501C080E00C941609309103
:1050B000B902232F26952F5F2F77822F90E0317032
:1050C00004972CF4220F232B2093B90202C03093B3
:1050D000B9028091B9028E7F91E009F490E080914D
:1050E000B90290FB80F98093B9020E94DD22809181
:1050F000B90286950C941609843008F083E0880F75
:105100009091B9029170982B9093B9029E7F21E003
:1051100009F420E08091B90220FB80F98093B90264
:105120000E94DD228091B90286950C941609809127
:10513000B9028695089580916A0208950F931F938E
:10514000CF93DF9300D01F92CDB7DEB78C010E94C2
:10515000142B823011F0843019F583E089831B838E
:105160000A838093E9008FEF9091E800815095FDCC
:1051700006C095ED9A95F1F700008111F5CF809169
:10518000E80085FF0DC040E050E063E070E0CE0134
:1051900001960E94312B8091E8008E778093E80081
:1051A0000F900F900F90DF91CF911F910F91089565
:1051B000CF93DF9300D01F92CDB7DEB72091BE0210
:1051C000243031F522E02983805891099B838A831A
:1051D00083E08093E9008FEF9091E800815095FD86
:1051E00006C095ED9A95F1F700008111F5CF8091F9
:1051F000E80085FF0DC040E050E063E070E0CE01C4
:1052000001960E94312B8091E8008E778093E80010
:105210000F900F900F90DF91CF910895CF93DF9370
:10522000EC010E94142B823011F08430F9F482E0FA
:105230008093E9008FEF9091E800815095FD06C0C2
:1052400095ED9A95F1F700008111F5CF8091E80076
:1052500085FF0CC040E050E065E070E0CE010E94A8
:10526000312B8091E8008E778093E800DF91CF9119
:105270000895CF93DF93EC010E94142B823019F034
:10528000843009F047C0809115018823E1F08091B6
:10529000B70287FF18C084E08093E9008FEF9091F8
:1052A000E800815095FD06C095E19A95F1F7000060
:1052B0008111F5CF8091E80085FF2CC040E050E0DF
:1052C00060E270E017C081E08093E9008FEF909179
:1052D000E800815095FD06C095ED9A95F1F7000024
:1052E0008111F5CF8091E80085FF14C040E050E0C7
:1052F00068E070E0CE010E94312B8091E8008E774B
:105300008093E80080E2FE01AAE4B2E001900D92F1
:105310008A95E1F7DF91CF9108958091BD028111C7
:1053200009C00E94C32C0E94202D8091E20084605D
:105330008093E20008951092BD02089508950895A3
:105340000C94AE2342E061EC81E00E943D2C42E0EF
:1053500061EC82E00E943D2C42E061EC83E00E941F
:105360003D2C42E261EC84E00C943D2C8091C00223
:10537000833009F455C030F4813071F0823009F483
:105380008EC008958A3009F47AC08B3009F460C069
:10539000893009F09CC020C08091BF02813A09F099
:1053A00096C08091E800877F8093E8008091C302D7
:1053B0009091C402892B21F060E080E090E003C06E
:1053C00060E28AE492E070E00E947A2B8091E8002B
:1053D0008B778093E80008958091BF02813209F0B5
:1053E00076C08091C3029091C402009719F0039790
:1053F00009F06DC08091E800877F8093E80080917C
:10540000E80082FD05C08091BE028111F8CF5FC027
:105410008091F10080936A028091E8008B7753C0FD
:105420008091BF02813A09F052C08091C3029091ED
:10543000C402892B09F04BC08091E800877F8093DC
:10544000E8008091E80080FFFCCF8091150136C014
:105450008091BF028132D9F58091C3029091C4023C
:10546000892BA9F58091E800877F8093E8000E944E
:10547000722C8091C102809315010C942C1C809198
:10548000BF02813221F58091E800877F8093E80098
:105490000E94722C8091C20280936B0208958091C9
:1054A000BF02813AA1F48091E800877F8093E800F1
:1054B0008091E80080FFFCCF80916B028093F10027
:1054C0008091E8008E778093E8000C94722C089508
:1054D00084B7877F84BF88E10FB6F894809360001B
:1054E000109260000FBE80E880936100109261000E
:1054F0000E94D0160E94C32C0E94202D8091E200B1
:1055000084608093E20078940E94A32F0E94D416B6
:105510008BE091E00E947C168091BE02853069F498
:105520000E946B238091BC028823B1F30E949923CF
:10553000882391F30E941B2BEFCF0E94DE160E945E
:105540000F16EACF0C94A42A292F332723303105D4
:10555000A9F06CF42130310509F448C0223031053E
:1055600009F049C08DE690E028EA3EE048C02132CB
:105570003105F9F02232310549F13DC099278130DA
:10558000910571F02CF4892BB1F5E4EAFEE00DC031
:105590008230910541F0039771F5E6E8FEE005C021
:1055A000EAE9FEE002C0ECE8FEE0849190E09F01B1
:1055B00026C064307105F8F4FB01EE0FFF1FE95CB3
:1055C000FE4F2081318189E090E019C0643071057F
:1055D00090F4FB01EE0FFF1FE15DFE4F2081318152
:1055E000FB01E55DFE4F808190E009C082E190E023
:1055F00025E13FE004C080E090E020E030E0FA01E7
:105600003183208308950895CF93C82F0E94032BE0
:10561000C0936C02CF9108958091BE02843011F442
:1056200082E0089581E0089580916C02811102C0AA
:105630000C940C2B089580E189BD82E189BD09B4E9
:1056400000FEFDCF8091D8008F7D8093D80080919F
:10565000E00082608093E0008091E00081FDFCCF5B
:105660000895CF92DF92EF92FF920F931F93CF9303
:10567000DF937C018B01EA010E94932C811131C0E0
:10568000209731F088819981081B190BE80EF91ECB
:10569000C12CD12C0115110519F18091E80085FD6F
:1056A00014C08091E8008E778093E800209741F045
:1056B000888199818C0D9D1D9983888385E011C017
:1056C0000E94932C882331F30CC0F70181917F0154
:1056D0008093F10001501109FFEFCF1ADF0ADACFF2
:1056E00080E0DF91CF911F910F91FF90EF90DF90BD
:1056F000CF9008952091C5023091C6022617370732
:1057000048F06115710539F42091E8002E77209357
:10571000E80001C0B901FC0120E061157105B9F193
:105720008091BE02882309F440C0853009F43FC04F
:105730008091E80083FD3DC08091E80082FF06C0B3
:105740008091E80082FF26C080E008958091E80003
:1057500080FFE3CF2091F3008091F20090E0922B44
:105760006115710551F08830910538F4219120932D
:10577000F100615071090196F3CF21E0089709F01B
:1057800020E08091E8008E778093E800C6CF211159
:10579000C7CFD6CF8091BE02882339F0853039F04B
:1057A0008091E80083FFCCCF04C082E0089583E0BD
:1057B000089581E008952091C5023091C602261710
:1057C000370748F06115710539F42091E8002E770C
:1057D0002093E80001C0B901FC0120E061157105CA
:1057E000C1F18091BE02882309F441C0853009F4DB
:1057F00040C08091E80083FD3EC08091E80082FFB8
:1058000006C08091E80082FF27C080E00895809163
:10581000E80080FFE3CF2091F3008091F20090E058
:10582000922B6115710559F08830910540F424914F
:105830002093F1003196615071090196F2CF21E079
:10584000089709F020E08091E8008E778093E800C7
:10585000C5CF2111C6CFD5CF8091BE02882339F0A4
:10586000853039F08091E80083FFCBCF04C082E01F
:10587000089583E0089581E00895982F973058F5B2
:105880009093E900981739F07091EC002091ED00A9
:105890005091F00003C0242F762F50E021FF19C053
:1058A0003091EB003E7F3093EB003091ED003D7F77
:1058B0003093ED003091EB0031603093EB0070934A
:1058C000EC002093ED005093F0002091EE0027FFB4
:1058D00007C09F5FD3CF8F708093E90081E0089568
:1058E00080E008958091BF0287FD05C08091E800A7
:1058F00080FF0EC012C08091E80082FD05C080913B
:10590000BE028111F8CF08958091E8008B7708C01E
:105910008091BE028111EACF08958091E8008E77D0
:105920008093E80008958091E4009091E50045E6B9
:105930002091EC0020FF21C02091E80020FD21C033
:105940002091BE02222389F0253089F02091EB00BE
:1059500025FD0FC02091E4003091E500281739079C
:1059600039F3415041F0C901E3CF82E0089583E06B
:10597000089581E0089584E008952091E80022FFD1
:10598000DFCF80E008950E94312D0E94392DE0EE96
:10599000F0E0808181608083E8EDF0E080818F77A6
:1059A000808319BCA7EDB0E08C918E7F8C938081B1
:1059B0008F7E80831092BD0208950F931F93CF9323
:1059C000DF930E94312D0E94392DC8EDD0E08881EF
:1059D0008F77888388818068888388818F7D88839A
:1059E00019BC1092BE021092BA021092BC02109220
:1059F000BB0200EE10E0F80180818B7F80838881FC
:105A00008160888342E060E080E00E943D2CE1EE0E
:105A1000F0E080818E7F8083E2EEF0E08081816023
:105A20008083808188608083F80180818E7F80837D
:105A3000888180618883DF91CF911F910F910895B4
:105A4000E8EDF0E080818F7E8083E7EDF0E08081FB
:105A50008160808384E082BF81E08093BD020C94EA
:105A6000DD2CE8EDF0E080818E7F80831092E200F3
:105A700008951092DA001092E10008951F920F929B
:105A80000FB60F9211242F933F934F935F936F9311
:105A90007F938F939F93AF93BF93EF93FF938091E7
:105AA000E10082FF0BC08091E20082FF07C080917D
:105AB000E1008B7F8093E1000E94A22F8091DA00A9
:105AC00080FF1FC08091D80080FF1BC08091DA004A
:105AD0008E7F8093DA008091D90080FF0DC080E135
:105AE00089BD82E189BD09B400FEFDCF81E08093CC
:105AF000BE020E948D2905C019BC1092BE020E94F0
:105B00009B298091E10080FF19C08091E20080FF15
:105B100015C08091E2008E7F8093E2008091E200C8
:105B200080618093E2008091D80080628093D800E9
:105B300019BC85E08093BE020E949F298091E100FC
:105B400084FF30C08091E20084FF2CC080E189BDD9
:105B500082E189BD09B400FEFDCF8091D8008F7D20
:105B60008093D8008091E1008F7E8093E100809146
:105B7000E2008F7E8093E2008091E200816080935A
:105B8000E2008091BA02882311F084E007C080917E
:105B9000E30087FF02C083E001C081E08093BE0282
:105BA0000E94A0298091E10083FF29C08091E2003A
:105BB00083FF25C08091E100877F8093E10082E030
:105BC0008093BE021092BA028091E1008E7F809392
:105BD000E1008091E2008E7F8093E2008091E200FC
:105BE00080618093E20042E060E080E00E943D2C12
:105BF0008091F00088608093F0000E949E29FF91C0
:105C0000EF91BF91AF919F918F917F916F915F9134
:105C10004F913F912F910F900FBE0F901F901895AD
:105C20001F920F920FB60F9211242F933F934F9311
:105C30005F936F937F938F939F93AF93BF93CF9314
:105C4000EF93FF93C091E900CF708091EC00109228
:105C5000E9008091F000877F8093F00078940E94A3
:105C60004C2E1092E9008091F00088608093F00043
:105C7000C093E900FF91EF91CF91BF91AF919F91B8
:105C80008F917F916F915F914F913F912F910F90E5
:105C90000FBE0F901F9018951F93CF93DF93CDB732
:105CA000DEB7AA970FB6F894DEBF0FBECDBFEFEBFD
:105CB000F2E08091F100819322E0E73CF207C9F71E
:105CC0000E94B6298091E80083FF24C12091BF0281
:105CD0003091C002832F90E08A30910508F01AC1FC
:105CE000FC01EE55FF4F0C942833203821F0223868
:105CF00009F010C108C08091BB029091BC029923A9
:105D000089F082600FC08091C3028F70873008F0E5
:105D100001C18093E9008091EB0085FB882780F921
:105D20001092E9009091E800977F9093E8008093AB
:105D3000F1001092F100CCC0822F8D7F09F0EAC0F3
:105D4000222319F0223061F0E5C08091C102813038
:105D500009F0E0C0333009F080E08093BC022AC033
:105D60008091C102811126C02091C3022F708FEF54
:105D7000820F863008F0CEC02093E9008091EB00BE
:105D800080FF18C08091EB00333011F4806210C0A6
:105D900080618093EB0081E090E001C0880F2A953C
:105DA000EAF78093EA001092EA008091EB008860A5
:105DB0008093EB001092E9008091E800877F809348
:105DC000E8000E94722CA6C02111A4C01091C1024B
:105DD0001F778091E3008078812B8093E30080918E
:105DE000E800877F8093E8000E94722C8091E80091
:105DF00080FFFCCF8091E30080688093E300112353
:105E000011F083E001C082E08093BE0283C020587D
:105E1000223008F07FC08091C1029091C2028C3D77
:105E200023E0920779F583E08A838AE289834FB77A
:105E3000F894DE01139620E03EE051E2E32FF0E01B
:105E400050935700E49120FF03C0E295EF703F5F4D
:105E5000EF708E2F90E0EA3010F0C79601C0C09628
:105E60008D939D932F5F243149F74FBF8091E800B8
:105E7000877F8093E8006AE270E0CE0101960E947D
:105E80007A2B15C06091C3027091C402AE014F5FBE
:105E90005F4F0E94A22A0097E9F12091E800277F36
:105EA0002093E800BC0189819A810E94DB2B8091BC
:105EB000E8008B778093E8002DC0203859F5809159
:105EC000E800877F8093E8008091BA028093F10018
:105ED0008091E8008E7773CF21111CC09091C10290
:105EE0009230C0F48091E800877F8093E80090931F
:105EF000BA020E94722C8091BA02811104C0809172
:105F0000E30087FF02C084E001C081E08093BE020D
:105F10000E94A2298091E80083FF0AC08091E800D6
:105F2000877F8093E8008091EB0080628093EB0094
:105F3000AA960FB6F894DEBF0FBECDBFDF91CF910A
:105F40001F9108950895CF938091BE028823B1F0E8
:105F50008091E9008F709091EC0090FF02C090E872
:105F600001C090E0C92FC82B1092E9008091E80091
:105F700083FD0E944C2ECF70C093E900CF9108950D
:105F80005058BB27AA270ED09EC18FD130F094D194
:105F900020F031F49F3F11F41EF45FC10EF4E09540
:105FA000E7FB55C1E92FA0D180F3BA176207730749
:105FB0008407950718F071F49EF5B8C10EF4E095CA
:105FC0000B2EBA2FA02D0B01B90190010C01CA01B3
:105FD000A0011124FF27591B99F0593F50F4503E5E
:105FE00068F11A16F040A22F232F342F4427585F50
:105FF000F3CF469537952795A795F0405395C9F768
:106000007EF41F16BA0B620B730B840BBAF091501F
:10601000A1F0FF0FBB1F661F771F881FC2F70EC0BE
:10602000BA0F621F731F841F48F487957795679591
:10603000B795F7959E3F08F0B3CF9395880F08F07A
:106040009927EE0F9795879508950CD03CC134D1D0
:1060500040F02BD130F021F45F3F19F0F8C051111E
:1060600066C1FBC041D198F39923C9F35523B1F31D
:10607000951B550BBB27AA2762177307840738F0B7
:106080009F5F5F4F220F331F441FAA1FA9F333D016
:106090000E2E3AF0E0E830D091505040E695001CCA
:1060A000CAF729D0FE2F27D0660F771F881FBB1F86
:1060B000261737074807AB07B0E809F0BB0B802D60
:1060C000BF01FF2793585F4F2AF09E3F510568F0AC
:1060D000BEC02DC15F3FECF3983EDCF3869577950B
:1060E0006795B795F7959F5FC9F7880F911D9695AE
:1060F000879597F90895E1E0660F771F881FBB1F0A
:10610000621773078407BA0720F0621B730B840BB6
:10611000BA0BEE1F88F7E095089519F40EF097C0BA
:1061200005C19BC0E9D0C8F39638C0F707F80F92B5
:10613000E8942BE33AEA48EB5FE77DD10F920F92A8
:106140000F924DB75EB70F9235D1E8E5F1E088D0F8
:106150004F915F91EF91FF91E595EE1FFF1F49F081
:10616000FE57E0684427EE0F441FFA95E1F741958A
:10617000550BECD00F9007FEE0C00895BDD088F01D
:106180009F5790F0B92F9927B751A0F0D1F0660F23
:10619000771F881F991F1AF0BA95C9F712C0B1303E
:1061A00081F0C4D0B1E00895C1C0672F782F88274F
:1061B000B85F39F0B93FCCF3869577956795B3957D
:1061C000D9F73EF490958095709561957F4F8F4FEC
:1061D0009F4F0895E89409C097FB3EF490958095F1
:1061E000709561957F4F8F4F9F4F9923A9F0F92F9D
:1061F00096E9BB279395F695879577956795B7951B
:10620000F111F8CFFAF4BB0F11F460FF1BC06F5F00
:106210007F4F8F4F9F4F16C0882311F096E911C012
:10622000772321F09EE8872F762F05C0662371F033
:1062300096E8862F70E060E02AF09A95660F771F47
:10624000881FDAF7880F9695879597F9089597F93B
:106250009F6780E870E060E008959FEF80EC08950C
:10626000DF93CF931F930F93FF92EF92DF927B0107
:106270008C01689405C0DA2EEF01DBD0FE01E894B2
:10628000A5912591359145915591AEF3EF018ADEA7
:10629000FE019701A801DA9479F7DF90EF90FF9063
:1062A0000F911F91CF91DF91089500240A94161643
:1062B000170618060906089500240A9412161306F4
:1062C000140605060895092E0394000C11F4882382
:1062D00052F0BB0F40F4BF2B11F460FF04C06F5F9E
:1062E0007F4F8F4F9F4F089557FD9058440F551F74
:1062F00059F05F3F71F04795880F97FB991F61F048
:106300009F3F79F087950895121613061406551FBE
:10631000F2CF4695F1DF08C0161617061806991F2A
:10632000F1CF86957105610508940895E894BB271F
:1063300066277727CB0197F908959B01AC0160E0B0
:1063400070E080E89FE381CE82CFD0C0D5DFE8F354
:106350009923D9F3940F511DBBF39150504094F001
:1063600059F0882332F0660F771F881F91505040F4
:10637000C1F79E3F510544F7880F911D969587956B
:1063800097F908955F3FACF0983E9CF0BB27869547
:1063900077956795B79508F4B1609395C1F7BB0FF2
:1063A00058F711F460FFE8CF6F5F7F4F8F4F9F4F1B
:1063B000E3CFBDCFFA01DC01AA0FBB1F9B01AC01EB
:1063C000BF5728F422273327442750781FC0B751DE
:1063D00088F4AB2F0024469537952795011CA3958B
:1063E000D2F3002069F0220F331F441FB395DAF374
:1063F0000DD0C6CD61307105A0E88A07B94630F4EA
:106400009B01AC016627772788279078309621F08A
:10641000208331834283538308950BD054CF45DFCB
:1064200028F04ADF18F0952309F011CF16CF112478
:106430007ECF5ADFA0F3959FD1F3950F50E0551F03
:10644000629FF001729FBB27F00DB11D639FAA27C9
:10645000F00DB11DAA1F649F6627B00DA11D661F18
:10646000829F2227B00DA11D621F739FB00DA11D39
